{
  "_format": "hh-sol-artifact-1",
  "contractName": "CarbonCreditNFT",
  "sourceName": "contracts/CarbonCreditNFT.sol",
  "abi": [
    {
      "inputs": [
        {
          "internalType": "address",
          "name": "_minter",
          "type": "address"
        }
      ],
      "stateMutability": "nonpayable",
      "type": "constructor"
    },
    {
      "inputs": [],
      "name": "AlreadyRetired",
      "type": "error"
    },
    {
      "inputs": [
        {
          "internalType": "address",
          "name": "sender",
          "type": "address"
        },
        {
          "internalType": "uint256",
          "name": "tokenId",
          "type": "uint256"
        },
        {
          "internalType": "address",
          "name": "owner",
          "type": "address"
        }
      ],
      "name": "ERC721IncorrectOwner",
      "type": "error"
    },
    {
      "inputs": [
        {
          "internalType": "address",
          "name": "operator",
          "type": "address"
        },
        {
          "internalType": "uint256",
          "name": "tokenId",
          "type": "uint256"
        }
      ],
      "name": "ERC721InsufficientApproval",
      "type": "error"
    },
    {
      "inputs": [
        {
          "internalType": "address",
          "name": "approver",
          "type": "address"
        }
      ],
      "name": "ERC721InvalidApprover",
      "type": "error"
    },
    {
      "inputs": [
        {
          "internalType": "address",
          "name": "operator",
          "type": "address"
        }
      ],
      "name": "ERC721InvalidOperator",
      "type": "error"
    },
    {
      "inputs": [
        {
          "internalType": "address",
          "name": "owner",
          "type": "address"
        }
      ],
      "name": "ERC721InvalidOwner",
      "type": "error"
    },
    {
      "inputs": [
        {
          "internalType": "address",
          "name": "receiver",
          "type": "address"
        }
      ],
      "name": "ERC721InvalidReceiver",
      "type": "error"
    },
    {
      "inputs": [
        {
          "internalType": "address",
          "name": "sender",
          "type": "address"
        }
      ],
      "name": "ERC721InvalidSender",
      "type": "error"
    },
    {
      "inputs": [
        {
          "internalType": "uint256",
          "name": "tokenId",
          "type": "uint256"
        }
      ],
      "name": "ERC721NonexistentToken",
      "type": "error"
    },
    {
      "inputs": [],
      "name": "InsufficientPayment",
      "type": "error"
    },
    {
      "inputs": [],
      "name": "NotListed",
      "type": "error"
    },
    {
      "inputs": [],
      "name": "NotMinter",
      "type": "error"
    },
    {
      "inputs": [],
      "name": "NotTokenOwner",
      "type": "error"
    },
    {
      "inputs": [
        {
          "internalType": "address",
          "name": "owner",
          "type": "address"
        }
      ],
      "name": "OwnableInvalidOwner",
      "type": "error"
    },
    {
      "inputs": [
        {
          "internalType": "address",
          "name": "account",
          "type": "address"
        }
      ],
      "name": "OwnableUnauthorizedAccount",
      "type": "error"
    },
    {
      "inputs": [],
      "name": "ReentrancyGuardReentrantCall",
      "type": "error"
    },
    {
      "inputs": [],
      "name": "TokenRetired",
      "type": "error"
    },
    {
      "anonymous": false,
      "inputs": [
        {
          "indexed": true,
          "internalType": "address",
          "name": "owner",
          "type": "address"
        },
        {
          "indexed": true,
          "internalType": "address",
          "name": "approved",
          "type": "address"
        },
        {
          "indexed": true,
          "internalType": "uint256",
          "name": "tokenId",
          "type": "uint256"
        }
      ],
      "name": "Approval",
      "type": "event"
    },
    {
      "anonymous": false,
      "inputs": [
        {
          "indexed": true,
          "internalType": "address",
          "name": "owner",
          "type": "address"
        },
        {
          "indexed": true,
          "internalType": "address",
          "name": "operator",
          "type": "address"
        },
        {
          "indexed": false,
          "internalType": "bool",
          "name": "approved",
          "type": "bool"
        }
      ],
      "name": "ApprovalForAll",
      "type": "event"
    },
    {
      "anonymous": false,
      "inputs": [
        {
          "indexed": false,
          "internalType": "uint256",
          "name": "_fromTokenId",
          "type": "uint256"
        },
        {
          "indexed": false,
          "internalType": "uint256",
          "name": "_toTokenId",
          "type": "uint256"
        }
      ],
      "name": "BatchMetadataUpdate",
      "type": "event"
    },
    {
      "anonymous": false,
      "inputs": [
        {
          "indexed": true,
          "internalType": "uint256",
          "name": "tokenId",
          "type": "uint256"
        },
        {
          "indexed": true,
          "internalType": "address",
          "name": "seller",
          "type": "address"
        },
        {
          "indexed": false,
          "internalType": "uint256",
          "name": "priceWei",
          "type": "uint256"
        }
      ],
      "name": "Listed",
      "type": "event"
    },
    {
      "anonymous": false,
      "inputs": [
        {
          "indexed": false,
          "internalType": "uint256",
          "name": "_tokenId",
          "type": "uint256"
        }
      ],
      "name": "MetadataUpdate",
      "type": "event"
    },
    {
      "anonymous": false,
      "inputs": [
        {
          "indexed": true,
          "internalType": "address",
          "name": "previousOwner",
          "type": "address"
        },
        {
          "indexed": true,
          "internalType": "address",
          "name": "newOwner",
          "type": "address"
        }
      ],
      "name": "OwnershipTransferred",
      "type": "event"
    },
    {
      "anonymous": false,
      "inputs": [
        {
          "indexed": true,
          "internalType": "uint256",
          "name": "tokenId",
          "type": "uint256"
        },
        {
          "indexed": true,
          "internalType": "address",
          "name": "retirer",
          "type": "address"
        }
      ],
      "name": "Retired",
      "type": "event"
    },
    {
      "anonymous": false,
      "inputs": [
        {
          "indexed": true,
          "internalType": "uint256",
          "name": "tokenId",
          "type": "uint256"
        },
        {
          "indexed": true,
          "internalType": "address",
          "name": "buyer",
          "type": "address"
        },
        {
          "indexed": true,
          "internalType": "address",
          "name": "seller",
          "type": "address"
        },
        {
          "indexed": false,
          "internalType": "uint256",
          "name": "priceWei",
          "type": "uint256"
        }
      ],
      "name": "Sold",
      "type": "event"
    },
    {
      "anonymous": false,
      "inputs": [
        {
          "indexed": true,
          "internalType": "address",
          "name": "from",
          "type": "address"
        },
        {
          "indexed": true,
          "internalType": "address",
          "name": "to",
          "type": "address"
        },
        {
          "indexed": true,
          "internalType": "uint256",
          "name": "tokenId",
          "type": "uint256"
        }
      ],
      "name": "Transfer",
      "type": "event"
    },
    {
      "anonymous": false,
      "inputs": [
        {
          "indexed": true,
          "internalType": "uint256",
          "name": "tokenId",
          "type": "uint256"
        },
        {
          "indexed": true,
          "internalType": "address",
          "name": "seller",
          "type": "address"
        }
      ],
      "name": "Unlisted",
      "type": "event"
    },
    {
      "inputs": [
        {
          "internalType": "address",
          "name": "to",
          "type": "address"
        },
        {
          "internalType": "uint256",
          "name": "tokenId",
          "type": "uint256"
        }
      ],
      "name": "approve",
      "outputs": [],
      "stateMutability": "nonpayable",
      "type": "function"
    },
    {
      "inputs": [
        {
          "internalType": "address",
          "name": "owner",
          "type": "address"
        }
      ],
      "name": "balanceOf",
      "outputs": [
        {
          "internalType": "uint256",
          "name": "",
          "type": "uint256"
        }
      ],
      "stateMutability": "view",
      "type": "function"
    },
    {
      "inputs": [
        {
          "internalType": "uint256",
          "name": "tokenId",
          "type": "uint256"
        }
      ],
      "name": "buy",
      "outputs": [],
      "stateMutability": "payable",
      "type": "function"
    },
    {
      "inputs": [
        {
          "internalType": "uint256",
          "name": "tokenId",
          "type": "uint256"
        }
      ],
      "name": "getApproved",
      "outputs": [
        {
          "internalType": "address",
          "name": "",
          "type": "address"
        }
      ],
      "stateMutability": "view",
      "type": "function"
    },
    {
      "inputs": [
        {
          "internalType": "uint256",
          "name": "tokenId",
          "type": "uint256"
        }
      ],
      "name": "getListingPrice",
      "outputs": [
        {
          "internalType": "uint256",
          "name": "",
          "type": "uint256"
        }
      ],
      "stateMutability": "view",
      "type": "function"
    },
    {
      "inputs": [
        {
          "internalType": "address",
          "name": "owner",
          "type": "address"
        },
        {
          "internalType": "address",
          "name": "operator",
          "type": "address"
        }
      ],
      "name": "isApprovedForAll",
      "outputs": [
        {
          "internalType": "bool",
          "name": "",
          "type": "bool"
        }
      ],
      "stateMutability": "view",
      "type": "function"
    },
    {
      "inputs": [
        {
          "internalType": "uint256",
          "name": "tokenId",
          "type": "uint256"
        }
      ],
      "name": "isListed",
      "outputs": [
        {
          "internalType": "bool",
          "name": "",
          "type": "bool"
        }
      ],
      "stateMutability": "view",
      "type": "function"
    },
    {
      "inputs": [
        {
          "internalType": "uint256",
          "name": "tokenId",
          "type": "uint256"
        },
        {
          "internalType": "uint256",
          "name": "priceWei",
          "type": "uint256"
        }
      ],
      "name": "list",
      "outputs": [],
      "stateMutability": "nonpayable",
      "type": "function"
    },
    {
      "inputs": [
        {
          "internalType": "uint256",
          "name": "",
          "type": "uint256"
        }
      ],
      "name": "listingPrice",
      "outputs": [
        {
          "internalType": "uint256",
          "name": "",
          "type": "uint256"
        }
      ],
      "stateMutability": "view",
      "type": "function"
    },
    {
      "inputs": [
        {
          "internalType": "address",
          "name": "to",
          "type": "address"
        },
        {
          "internalType": "string",
          "name": "tokenUri",
          "type": "string"
        },
        {
          "internalType": "string",
          "name": "projectId",
          "type": "string"
        },
        {
          "internalType": "uint256",
          "name": "volumeTCO2e",
          "type": "uint256"
        },
        {
          "internalType": "bytes32",
          "name": "verificationProofHash",
          "type": "bytes32"
        }
      ],
      "name": "mint",
      "outputs": [
        {
          "internalType": "uint256",
          "name": "",
          "type": "uint256"
        }
      ],
      "stateMutability": "nonpayable",
      "type": "function"
    },
    {
      "inputs": [],
      "name": "minter",
      "outputs": [
        {
          "internalType": "address",
          "name": "",
          "type": "address"
        }
      ],
      "stateMutability": "view",
      "type": "function"
    },
    {
      "inputs": [],
      "name": "name",
      "outputs": [
        {
          "internalType": "string",
          "name": "",
          "type": "string"
        }
      ],
      "stateMutability": "view",
      "type": "function"
    },
    {
      "inputs": [],
      "name": "owner",
      "outputs": [
        {
          "internalType": "address",
          "name": "",
          "type": "address"
        }
      ],
      "stateMutability": "view",
      "type": "function"
    },
    {
      "inputs": [
        {
          "internalType": "uint256",
          "name": "tokenId",
          "type": "uint256"
        }
      ],
      "name": "ownerOf",
      "outputs": [
        {
          "internalType": "address",
          "name": "",
          "type": "address"
        }
      ],
      "stateMutability": "view",
      "type": "function"
    },
    {
      "inputs": [
        {
          "internalType": "uint256",
          "name": "",
          "type": "uint256"
        }
      ],
      "name": "projectIdOf",
      "outputs": [
        {
          "internalType": "string",
          "name": "",
          "type": "string"
        }
      ],
      "stateMutability": "view",
      "type": "function"
    },
    {
      "inputs": [],
      "name": "renounceOwnership",
      "outputs": [],
      "stateMutability": "nonpayable",
      "type": "function"
    },
    {
      "inputs": [
        {
          "internalType": "uint256",
          "name": "tokenId",
          "type": "uint256"
        }
      ],
      "name": "retire",
      "outputs": [],
      "stateMutability": "nonpayable",
      "type": "function"
    },
    {
      "inputs": [
        {
          "internalType": "uint256",
          "name": "",
          "type": "uint256"
        }
      ],
      "name": "retired",
      "outputs": [
        {
          "internalType": "bool",
          "name": "",
          "type": "bool"
        }
      ],
      "stateMutability": "view",
      "type": "function"
    },
    {
      "inputs": [
        {
          "internalType": "address",
          "name": "from",
          "type": "address"
        },
        {
          "internalType": "address",
          "name": "to",
          "type": "address"
        },
        {
          "internalType": "uint256",
          "name": "tokenId",
          "type": "uint256"
        }
      ],
      "name": "safeTransferFrom",
      "outputs": [],
      "stateMutability": "nonpayable",
      "type": "function"
    },
    {
      "inputs": [
        {
          "internalType": "address",
          "name": "from",
          "type": "address"
        },
        {
          "internalType": "address",
          "name": "to",
          "type": "address"
        },
        {
          "internalType": "uint256",
          "name": "tokenId",
          "type": "uint256"
        },
        {
          "internalType": "bytes",
          "name": "data",
          "type": "bytes"
        }
      ],
      "name": "safeTransferFrom",
      "outputs": [],
      "stateMutability": "nonpayable",
      "type": "function"
    },
    {
      "inputs": [
        {
          "internalType": "address",
          "name": "operator",
          "type": "address"
        },
        {
          "internalType": "bool",
          "name": "approved",
          "type": "bool"
        }
      ],
      "name": "setApprovalForAll",
      "outputs": [],
      "stateMutability": "nonpayable",
      "type": "function"
    },
    {
      "inputs": [
        {
          "internalType": "address",
          "name": "_minter",
          "type": "address"
        }
      ],
      "name": "setMinter",
      "outputs": [],
      "stateMutability": "nonpayable",
      "type": "function"
    },
    {
      "inputs": [
        {
          "internalType": "bytes4",
          "name": "interfaceId",
          "type": "bytes4"
        }
      ],
      "name": "supportsInterface",
      "outputs": [
        {
          "internalType": "bool",
          "name": "",
          "type": "bool"
        }
      ],
      "stateMutability": "view",
      "type": "function"
    },
    {
      "inputs": [],
      "name": "symbol",
      "outputs": [
        {
          "internalType": "string",
          "name": "",
          "type": "string"
        }
      ],
      "stateMutability": "view",
      "type": "function"
    },
    {
      "inputs": [
        {
          "internalType": "uint256",
          "name": "tokenId",
          "type": "uint256"
        }
      ],
      "name": "tokenURI",
      "outputs": [
        {
          "internalType": "string",
          "name": "",
          "type": "string"
        }
      ],
      "stateMutability": "view",
      "type": "function"
    },
    {
      "inputs": [
        {
          "internalType": "address",
          "name": "from",
          "type": "address"
        },
        {
          "internalType": "address",
          "name": "to",
          "type": "address"
        },
        {
          "internalType": "uint256",
          "name": "tokenId",
          "type": "uint256"
        }
      ],
      "name": "transferFrom",
      "outputs": [],
      "stateMutability": "nonpayable",
      "type": "function"
    },
    {
      "inputs": [
        {
          "internalType": "address",
          "name": "newOwner",
          "type": "address"
        }
      ],
      "name": "transferOwnership",
      "outputs": [],
      "stateMutability": "nonpayable",
      "type": "function"
    },
    {
      "inputs": [
        {
          "internalType": "uint256",
          "name": "tokenId",
          "type": "uint256"
        }
      ],
      "name": "unlist",
      "outputs": [],
      "stateMutability": "nonpayable",
      "type": "function"
    },
    {
      "inputs": [
        {
          "internalType": "uint256",
          "name": "",
          "type": "uint256"
        }
      ],
      "name": "verificationProofOf",
      "outputs": [
        {
          "internalType": "bytes32",
          "name": "",
          "type": "bytes32"
        }
      ],
      "stateMutability": "view",
      "type": "function"
    },
    {
      "inputs": [
        {
          "internalType": "uint256",
          "name": "",
          "type": "uint256"
        }
      ],
      "name": "volumeTCO2eOf",
      "outputs": [
        {
          "internalType": "uint256",
          "name": "",
          "type": "uint256"
        }
      ],
      "stateMutability": "view",
      "type": "function"
    }
  ],
  "bytecode": "0x608060405234801561001057600080fd5b50604051613f77380380613f77833981810160405281019061003291906102bb565b336040518060400160405280600f81526020017f436172626f6e4372656469744e465400000000000000000000000000000000008152506040518060400160405280600581526020017f43434e465400000000000000000000000000000000000000000000000000000081525081600090816100ae9190610538565b5080600190816100be9190610538565b505050600073ffffffffffffffffffffffffffffffffffffffff168173ffffffffffffffffffffffffffffffffffffffff16036101335760006040517f1e4fbdf700000000000000000000000000000000000000000000000000000000815260040161012a9190610619565b60405180910390fd5b6101428161019260201b60201c565b50600160088190555080600a60006101000a81548173ffffffffffffffffffffffffffffffffffffffff021916908373ffffffffffffffffffffffffffffffffffffffff16021790555050610634565b6000600760009054906101000a900473ffffffffffffffffffffffffffffffffffffffff16905081600760006101000a81548173ffffffffffffffffffffffffffffffffffffffff021916908373ffffffffffffffffffffffffffffffffffffffff1602179055508173ffffffffffffffffffffffffffffffffffffffff168173ffffffffffffffffffffffffffffffffffffffff167f8be0079c531659141344cd1fd0a4f28419497f9722a3daafe3b4186f6b6457e060405160405180910390a35050565b600080fd5b600073ffffffffffffffffffffffffffffffffffffffff82169050919050565b60006102888261025d565b9050919050565b6102988161027d565b81146102a357600080fd5b50565b6000815190506102b58161028f565b92915050565b6000602082840312156102d1576102d0610258565b5b60006102df848285016102a6565b91505092915050565b600081519050919050565b7f4e487b7100000000000000000000000000000000000000000000000000000000600052604160045260246000fd5b7f4e487b7100000000000000000000000000000000000000000000000000000000600052602260045260246000fd5b6000600282049050600182168061036957607f821691505b60208210810361037c5761037b610322565b5b50919050565b60008190508160005260206000209050919050565b60006020601f8301049050919050565b600082821b905092915050565b6000600883026103e47fffffffffffffffffffffffffffffffffffffffffffffffffffffffffffffffff826103a7565b6103ee86836103a7565b95508019841693508086168417925050509392505050565b6000819050919050565b6000819050919050565b600061043561043061042b84610406565b610410565b610406565b9050919050565b6000819050919050565b61044f8361041a565b61046361045b8261043c565b8484546103b4565b825550505050565b600090565b61047861046b565b610483818484610446565b505050565b5b818110156104a75761049c600082610470565b600181019050610489565b5050565b601f8211156104ec576104bd81610382565b6104c684610397565b810160208510156104d5578190505b6104e96104e185610397565b830182610488565b50505b505050565b600082821c905092915050565b600061050f600019846008026104f1565b1980831691505092915050565b600061052883836104fe565b9150826002028217905092915050565b610541826102e8565b67ffffffffffffffff81111561055a576105596102f3565b5b6105648254610351565b61056f8282856104ab565b600060209050601f8311600181146105a25760008415610590578287015190505b61059a858261051c565b865550610602565b601f1984166105b086610382565b60005b828110156105d8578489015182556001820191506020850194506020810190506105b3565b868310156105f557848901516105f1601f8916826104fe565b8355505b6001600288020188555050505b505050505050565b6106138161027d565b82525050565b600060208201905061062e600083018461060a565b92915050565b613934806106436000396000f3fe6080604052600436106101cd5760003560e01c80638da5cb5b116100f7578063cba2d5a011610095578063f2fde38b11610064578063f2fde38b146106d5578063fca3b5aa146106fe578063fcce488314610727578063fe443bd414610764576101cd565b8063cba2d5a014610602578063d6077fbf1461063f578063d96a094a1461067c578063e985e9c514610698576101cd565b8063a22cb465116100d1578063a22cb4651461054a578063b88d4fde14610573578063bf5a4dd31461059c578063c87b56dd146105c5576101cd565b80638da5cb5b146104b75780639152a319146104e257806395d89b411461051f576101cd565b806325a969df1161016f57806350fd73671161013e57806350fd7367146103fd5780636352211e1461042657806370a0823114610463578063715018a6146104a0576101cd565b806325a969df146103315780633790cf571461036e57806342842e0e1461039757806349b45763146103c0576101cd565b8063081812fc116101ab578063081812fc14610265578063095ea7b3146102a2578063115bc936146102cb57806323b872dd14610308576101cd565b806301ffc9a7146101d257806306fdde031461020f578063075461721461023a575b600080fd5b3480156101de57600080fd5b506101f960048036038101906101f49190612aa0565b6107a1565b6040516102069190612ae8565b60405180910390f35b34801561021b57600080fd5b506102246107b3565b6040516102319190612b93565b60405180910390f35b34801561024657600080fd5b5061024f610845565b60405161025c9190612bf6565b60405180910390f35b34801561027157600080fd5b5061028c60048036038101906102879190612c47565b61086b565b6040516102999190612bf6565b60405180910390f35b3480156102ae57600080fd5b506102c960048036038101906102c49190612ca0565b610887565b005b3480156102d757600080fd5b506102f260048036038101906102ed9190612c47565b61089d565b6040516102ff9190612cef565b60405180910390f35b34801561031457600080fd5b5061032f600480360381019061032a9190612d0a565b6108b5565b005b34801561033d57600080fd5b5061035860048036038101906103539190612c47565b6109b7565b6040516103659190612b93565b60405180910390f35b34801561037a57600080fd5b5061039560048036038101906103909190612c47565b610a57565b005b3480156103a357600080fd5b506103be60048036038101906103b99190612d0a565b610b8f565b005b3480156103cc57600080fd5b506103e760048036038101906103e29190612c47565b610baf565b6040516103f49190612cef565b60405180910390f35b34801561040957600080fd5b50610424600480360381019061041f9190612d5d565b610bc7565b005b34801561043257600080fd5b5061044d60048036038101906104489190612c47565b610cf7565b60405161045a9190612bf6565b60405180910390f35b34801561046f57600080fd5b5061048a60048036038101906104859190612d9d565b610d09565b6040516104979190612cef565b60405180910390f35b3480156104ac57600080fd5b506104b5610dc3565b005b3480156104c357600080fd5b506104cc610dd7565b6040516104d99190612bf6565b60405180910390f35b3480156104ee57600080fd5b5061050960048036038101906105049190612c47565b610e01565b6040516105169190612ae8565b60405180910390f35b34801561052b57600080fd5b50610534610e21565b6040516105419190612b93565b60405180910390f35b34801561055657600080fd5b50610571600480360381019061056c9190612df6565b610eb3565b005b34801561057f57600080fd5b5061059a60048036038101906105959190612f6b565b610ec9565b005b3480156105a857600080fd5b506105c360048036038101906105be9190612c47565b610eee565b005b3480156105d157600080fd5b506105ec60048036038101906105e79190612c47565b610fbb565b6040516105f99190612b93565b60405180910390f35b34801561060e57600080fd5b5061062960048036038101906106249190612c47565b610fcd565b6040516106369190613007565b60405180910390f35b34801561064b57600080fd5b5061066660048036038101906106619190612c47565b610fe5565b6040516106739190612cef565b60405180910390f35b61069660048036038101906106919190612c47565b611002565b005b3480156106a457600080fd5b506106bf60048036038101906106ba9190613022565b611300565b6040516106cc9190612ae8565b60405180910390f35b3480156106e157600080fd5b506106fc60048036038101906106f79190612d9d565b611394565b005b34801561070a57600080fd5b5061072560048036038101906107209190612d9d565b61141a565b005b34801561073357600080fd5b5061074e60048036038101906107499190612c47565b611466565b60405161075b9190612ae8565b60405180910390f35b34801561077057600080fd5b5061078b600480360381019061078691906130ee565b611485565b6040516107989190612cef565b60405180910390f35b60006107ac82611624565b9050919050565b6060600080546107c2906131d9565b80601f01602080910402602001604051908101604052809291908181526020018280546107ee906131d9565b801561083b5780601f106108105761010080835404028352916020019161083b565b820191906000526020600020905b81548152906001019060200180831161081e57829003601f168201915b5050505050905090565b600a60009054906101000a900473ffffffffffffffffffffffffffffffffffffffff1681565b600061087682611685565b506108808261170d565b9050919050565b610899828261089461174a565b611752565b5050565b600b6020528060005260406000206000915090505481565b600073ffffffffffffffffffffffffffffffffffffffff168273ffffffffffffffffffffffffffffffffffffffff16036109275760006040517f64a0ae9200000000000000000000000000000000000000000000000000000000815260040161091e9190612bf6565b60405180910390fd5b600061093b838361093661174a565b611764565b90508373ffffffffffffffffffffffffffffffffffffffff168173ffffffffffffffffffffffffffffffffffffffff16146109b1578382826040517f64283d7b0000000000000000000000000000000000000000000000000000000081526004016109a89392919061320a565b60405180910390fd5b50505050565b600d60205280600052604060002060009150905080546109d6906131d9565b80601f0160208091040260200160405190810160405280929190818152602001828054610a02906131d9565b8015610a4f5780601f10610a2457610100808354040283529160200191610a4f565b820191906000526020600020905b815481529060010190602001808311610a3257829003601f168201915b505050505081565b3373ffffffffffffffffffffffffffffffffffffffff16610a7782610cf7565b73ffffffffffffffffffffffffffffffffffffffff1614610ac4576040517f59dc379f00000000000000000000000000000000000000000000000000000000815260040160405180910390fd5b600c600082815260200190815260200160002060009054906101000a900460ff1615610b1c576040517f0ac03ea000000000000000000000000000000000000000000000000000000000815260040160405180910390fd5b6001600c600083815260200190815260200160002060006101000a81548160ff0219169083151502179055503373ffffffffffffffffffffffffffffffffffffffff16817f152a31b181b771801c61615f3bb08b1dcb71597a061fe1cd4085653d8c447fa460405160405180910390a350565b610baa83838360405180602001604052806000815250610ec9565b505050565b600e6020528060005260406000206000915090505481565b3373ffffffffffffffffffffffffffffffffffffffff16610be783610cf7565b73ffffffffffffffffffffffffffffffffffffffff1614610c34576040517f59dc379f00000000000000000000000000000000000000000000000000000000815260040160405180910390fd5b600c600083815260200190815260200160002060009054906101000a900460ff1615610c8c576040517ff37939f800000000000000000000000000000000000000000000000000000000815260040160405180910390fd5b80600b6000848152602001908152602001600020819055503373ffffffffffffffffffffffffffffffffffffffff16827f50955776c5778c3b7d968d86d8c51fb6b29a7a74c20866b533268e209fc0834383604051610ceb9190612cef565b60405180910390a35050565b6000610d0282611685565b9050919050565b60008073ffffffffffffffffffffffffffffffffffffffff168273ffffffffffffffffffffffffffffffffffffffff1603610d7c5760006040517f89c62b64000000000000000000000000000000000000000000000000000000008152600401610d739190612bf6565b60405180910390fd5b600360008373ffffffffffffffffffffffffffffffffffffffff1673ffffffffffffffffffffffffffffffffffffffff168152602001908152602001600020549050919050565b610dcb6117d2565b610dd56000611859565b565b6000600760009054906101000a900473ffffffffffffffffffffffffffffffffffffffff16905090565b600c6020528060005260406000206000915054906101000a900460ff1681565b606060018054610e30906131d9565b80601f0160208091040260200160405190810160405280929190818152602001828054610e5c906131d9565b8015610ea95780601f10610e7e57610100808354040283529160200191610ea9565b820191906000526020600020905b815481529060010190602001808311610e8c57829003601f168201915b5050505050905090565b610ec5610ebe61174a565b838361191f565b5050565b610ed48484846108b5565b610ee8610edf61174a565b85858585611a8e565b50505050565b3373ffffffffffffffffffffffffffffffffffffffff16610f0e82610cf7565b73ffffffffffffffffffffffffffffffffffffffff1614610f5b576040517f59dc379f00000000000000000000000000000000000000000000000000000000815260040160405180910390fd5b6000600b6000838152602001908152602001600020819055503373ffffffffffffffffffffffffffffffffffffffff16817f398bd90ce129393b9155d48dccffb325e671f45c4250de457462a019268ff1f060405160405180910390a350565b6060610fc682611c3f565b9050919050565b600f6020528060005260406000206000915090505481565b6000600b6000838152602001908152602001600020549050919050565b61100a611d52565b6000600b60008381526020019081526020016000205490506000810361105c576040517f665c1c5700000000000000000000000000000000000000000000000000000000815260040160405180910390fd5b80341015611096576040517fcd1c886700000000000000000000000000000000000000000000000000000000815260040160405180910390fd5b600c600083815260200190815260200160002060009054906101000a900460ff16156110ee576040517ff37939f800000000000000000000000000000000000000000000000000000000815260040160405180910390fd5b60006110f983610cf7565b90506000600b60008581526020019081526020016000208190555061111f813385611d98565b60008173ffffffffffffffffffffffffffffffffffffffff168360405161114590613272565b60006040518083038185875af1925050503d8060008114611182576040519150601f19603f3d011682016040523d82523d6000602084013e611187565b606091505b50509050806111cb576040517f08c379a00000000000000000000000000000000000000000000000000000000081526004016111c2906132d3565b60405180910390fd5b8173ffffffffffffffffffffffffffffffffffffffff163373ffffffffffffffffffffffffffffffffffffffff16857f23f50d55776d8003622a982ade45a6c7f083116c8dbbcd980f59942f440badb1866040516112299190612cef565b60405180910390a4823411156112f25760003373ffffffffffffffffffffffffffffffffffffffff16843461125e9190613322565b60405161126a90613272565b60006040518083038185875af1925050503d80600081146112a7576040519150601f19603f3d011682016040523d82523d6000602084013e6112ac565b606091505b50509050806112f0576040517f08c379a00000000000000000000000000000000000000000000000000000000081526004016112e7906133a2565b60405180910390fd5b505b5050506112fd611f05565b50565b6000600560008473ffffffffffffffffffffffffffffffffffffffff1673ffffffffffffffffffffffffffffffffffffffff16815260200190815260200160002060008373ffffffffffffffffffffffffffffffffffffffff1673ffffffffffffffffffffffffffffffffffffffff16815260200190815260200160002060009054906101000a900460ff16905092915050565b61139c6117d2565b600073ffffffffffffffffffffffffffffffffffffffff168173ffffffffffffffffffffffffffffffffffffffff160361140e5760006040517f1e4fbdf70000000000000000000000000000000000000000000000000000000081526004016114059190612bf6565b60405180910390fd5b61141781611859565b50565b6114226117d2565b80600a60006101000a81548173ffffffffffffffffffffffffffffffffffffffff021916908373ffffffffffffffffffffffffffffffffffffffff16021790555050565b600080600b600084815260200190815260200160002054119050919050565b6000600a60009054906101000a900473ffffffffffffffffffffffffffffffffffffffff1673ffffffffffffffffffffffffffffffffffffffff163373ffffffffffffffffffffffffffffffffffffffff161415801561151857506114e8610dd7565b73ffffffffffffffffffffffffffffffffffffffff163373ffffffffffffffffffffffffffffffffffffffff1614155b1561154f576040517ff8d2906c00000000000000000000000000000000000000000000000000000000815260040160405180910390fd5b600060096000815480929190611564906133c2565b9190505590508585600d6000848152602001908152602001600020918261158c9291906135c1565b5083600e60008381526020019081526020016000208190555082600f6000838152602001908152602001600020819055506115c78982611f0f565b6116158189898080601f016020809104026020016040519081016040528093929190818152602001838380828437600081840152601f19601f82011690508083019250505050505050611f2d565b80915050979650505050505050565b6000634906490660e01b7bffffffffffffffffffffffffffffffffffffffffffffffffffffffff1916827bffffffffffffffffffffffffffffffffffffffffffffffffffffffff1916148061167e575061167d82611f89565b5b9050919050565b6000806116918361206b565b9050600073ffffffffffffffffffffffffffffffffffffffff168173ffffffffffffffffffffffffffffffffffffffff160361170457826040517f7e2732890000000000000000000000000000000000000000000000000000000081526004016116fb9190612cef565b60405180910390fd5b80915050919050565b60006004600083815260200190815260200160002060009054906101000a900473ffffffffffffffffffffffffffffffffffffffff169050919050565b600033905090565b61175f83838360016120a8565b505050565b6000600c600084815260200190815260200160002060009054906101000a900460ff16156117be576040517ff37939f800000000000000000000000000000000000000000000000000000000815260040160405180910390fd5b6117c984848461226d565b90509392505050565b6117da61174a565b73ffffffffffffffffffffffffffffffffffffffff166117f8610dd7565b73ffffffffffffffffffffffffffffffffffffffff16146118575761181b61174a565b6040517f118cdaa700000000000000000000000000000000000000000000000000000000815260040161184e9190612bf6565b60405180910390fd5b565b6000600760009054906101000a900473ffffffffffffffffffffffffffffffffffffffff16905081600760006101000a81548173ffffffffffffffffffffffffffffffffffffffff021916908373ffffffffffffffffffffffffffffffffffffffff1602179055508173ffffffffffffffffffffffffffffffffffffffff168173ffffffffffffffffffffffffffffffffffffffff167f8be0079c531659141344cd1fd0a4f28419497f9722a3daafe3b4186f6b6457e060405160405180910390a35050565b600073ffffffffffffffffffffffffffffffffffffffff168273ffffffffffffffffffffffffffffffffffffffff160361199057816040517f5b08ba180000000000000000000000000000000000000000000000000000000081526004016119879190612bf6565b60405180910390fd5b80600560008573ffffffffffffffffffffffffffffffffffffffff1673ffffffffffffffffffffffffffffffffffffffff16815260200190815260200160002060008473ffffffffffffffffffffffffffffffffffffffff1673ffffffffffffffffffffffffffffffffffffffff16815260200190815260200160002060006101000a81548160ff0219169083151502179055508173ffffffffffffffffffffffffffffffffffffffff168373ffffffffffffffffffffffffffffffffffffffff167f17307eab39ab6107e8899845ad3d59bd9653f200f220920489ca2b5937696c3183604051611a819190612ae8565b60405180910390a3505050565b60008373ffffffffffffffffffffffffffffffffffffffff163b1115611c38578273ffffffffffffffffffffffffffffffffffffffff1663150b7a02868685856040518563ffffffff1660e01b8152600401611aed94939291906136e6565b6020604051808303816000875af1925050508015611b2957506040513d601f19601f82011682018060405250810190611b269190613747565b60015b611bad573d8060008114611b59576040519150601f19603f3d011682016040523d82523d6000602084013e611b5e565b606091505b506000815103611ba557836040517f64a0ae92000000000000000000000000000000000000000000000000000000008152600401611b9c9190612bf6565b60405180910390fd5b805160208201fd5b63150b7a0260e01b7bffffffffffffffffffffffffffffffffffffffffffffffffffffffff1916817bffffffffffffffffffffffffffffffffffffffffffffffffffffffff191614611c3657836040517f64a0ae92000000000000000000000000000000000000000000000000000000008152600401611c2d9190612bf6565b60405180910390fd5b505b5050505050565b6060611c4a82611685565b506000600660008481526020019081526020016000208054611c6b906131d9565b80601f0160208091040260200160405190810160405280929190818152602001828054611c97906131d9565b8015611ce45780601f10611cb957610100808354040283529160200191611ce4565b820191906000526020600020905b815481529060010190602001808311611cc757829003601f168201915b505050505090506000611cf5612487565b90506000815103611d0a578192505050611d4d565b600082511115611d3f578082604051602001611d279291906137b0565b60405160208183030381529060405292505050611d4d565b611d488461249e565b925050505b919050565b600260085403611d8e576040517f3ee5aeb500000000000000000000000000000000000000000000000000000000815260040160405180910390fd5b6002600881905550565b600073ffffffffffffffffffffffffffffffffffffffff168273ffffffffffffffffffffffffffffffffffffffff1603611e0a5760006040517f64a0ae92000000000000000000000000000000000000000000000000000000008152600401611e019190612bf6565b60405180910390fd5b6000611e1883836000611764565b9050600073ffffffffffffffffffffffffffffffffffffffff168173ffffffffffffffffffffffffffffffffffffffff1603611e8b57816040517f7e273289000000000000000000000000000000000000000000000000000000008152600401611e829190612cef565b60405180910390fd5b8373ffffffffffffffffffffffffffffffffffffffff168173ffffffffffffffffffffffffffffffffffffffff1614611eff578382826040517f64283d7b000000000000000000000000000000000000000000000000000000008152600401611ef69392919061320a565b60405180910390fd5b50505050565b6001600881905550565b611f29828260405180602001604052806000815250612507565b5050565b80600660008481526020019081526020016000209081611f4d91906137d4565b507ff8e1a15aba9398e019f0b49df1a4fde98ee17ae345cb5f6b5e2c27f5033e8ce782604051611f7d9190612cef565b60405180910390a15050565b60007f80ac58cd000000000000000000000000000000000000000000000000000000007bffffffffffffffffffffffffffffffffffffffffffffffffffffffff1916827bffffffffffffffffffffffffffffffffffffffffffffffffffffffff1916148061205457507f5b5e139f000000000000000000000000000000000000000000000000000000007bffffffffffffffffffffffffffffffffffffffffffffffffffffffff1916827bffffffffffffffffffffffffffffffffffffffffffffffffffffffff1916145b8061206457506120638261252b565b5b9050919050565b60006002600083815260200190815260200160002060009054906101000a900473ffffffffffffffffffffffffffffffffffffffff169050919050565b80806120e15750600073ffffffffffffffffffffffffffffffffffffffff168273ffffffffffffffffffffffffffffffffffffffff1614155b156122155760006120f184611685565b9050600073ffffffffffffffffffffffffffffffffffffffff168373ffffffffffffffffffffffffffffffffffffffff161415801561215c57508273ffffffffffffffffffffffffffffffffffffffff168173ffffffffffffffffffffffffffffffffffffffff1614155b801561216f575061216d8184611300565b155b156121b157826040517fa9fbf51f0000000000000000000000000000000000000000000000000000000081526004016121a89190612bf6565b60405180910390fd5b811561221357838573ffffffffffffffffffffffffffffffffffffffff168273ffffffffffffffffffffffffffffffffffffffff167f8c5be1e5ebec7d5bd14f71427d1e84f3dd0314c0f7b2291e5b200ac8c7c3b92560405160405180910390a45b505b836004600085815260200190815260200160002060006101000a81548173ffffffffffffffffffffffffffffffffffffffff021916908373ffffffffffffffffffffffffffffffffffffffff16021790555050505050565b6000806122798461206b565b9050600073ffffffffffffffffffffffffffffffffffffffff168373ffffffffffffffffffffffffffffffffffffffff16146122bb576122ba818486612595565b5b600073ffffffffffffffffffffffffffffffffffffffff168173ffffffffffffffffffffffffffffffffffffffff161461234c576122fd6000856000806120a8565b6001600360008373ffffffffffffffffffffffffffffffffffffffff1673ffffffffffffffffffffffffffffffffffffffff168152602001908152602001600020600082825403925050819055505b600073ffffffffffffffffffffffffffffffffffffffff168573ffffffffffffffffffffffffffffffffffffffff16146123cf576001600360008773ffffffffffffffffffffffffffffffffffffffff1673ffffffffffffffffffffffffffffffffffffffff168152602001908152602001600020600082825401925050819055505b846002600086815260200190815260200160002060006101000a81548173ffffffffffffffffffffffffffffffffffffffff021916908373ffffffffffffffffffffffffffffffffffffffff160217905550838573ffffffffffffffffffffffffffffffffffffffff168273ffffffffffffffffffffffffffffffffffffffff167fddf252ad1be2c89b69c2b068fc378daa952ba7f163c4a11628f55a4df523b3ef60405160405180910390a4809150509392505050565b606060405180602001604052806000815250905090565b60606124a982611685565b5060006124b4612487565b905060008151116124d457604051806020016040528060008152506124ff565b806124de84612659565b6040516020016124ef9291906137b0565b6040516020818303038152906040525b915050919050565b6125118383612727565b61252661251c61174a565b6000858585611a8e565b505050565b60007f01ffc9a7000000000000000000000000000000000000000000000000000000007bffffffffffffffffffffffffffffffffffffffffffffffffffffffff1916827bffffffffffffffffffffffffffffffffffffffffffffffffffffffff1916149050919050565b6125a0838383612820565b61265457600073ffffffffffffffffffffffffffffffffffffffff168373ffffffffffffffffffffffffffffffffffffffff160361261557806040517f7e27328900000000000000000000000000000000000000000000000000000000815260040161260c9190612cef565b60405180910390fd5b81816040517f177e802f00000000000000000000000000000000000000000000000000000000815260040161264b9291906138a6565b60405180910390fd5b505050565b606060006001612668846128e1565b01905060008167ffffffffffffffff81111561268757612686612e40565b5b6040519080825280601f01601f1916602001820160405280156126b95781602001600182028036833780820191505090505b509050600082602083010190505b60011561271c578080600190039150507f3031323334353637383961626364656600000000000000000000000000000000600a86061a8153600a85816127105761270f6138cf565b5b049450600085036126c7575b819350505050919050565b600073ffffffffffffffffffffffffffffffffffffffff168273ffffffffffffffffffffffffffffffffffffffff16036127995760006040517f64a0ae920000000000000000000000000000000000000000000000000000000081526004016127909190612bf6565b60405180910390fd5b60006127a783836000611764565b9050600073ffffffffffffffffffffffffffffffffffffffff168173ffffffffffffffffffffffffffffffffffffffff161461281b5760006040517f73c6ac6e0000000000000000000000000000000000000000000000000000000081526004016128129190612bf6565b60405180910390fd5b505050565b60008073ffffffffffffffffffffffffffffffffffffffff168373ffffffffffffffffffffffffffffffffffffffff16141580156128d857508273ffffffffffffffffffffffffffffffffffffffff168473ffffffffffffffffffffffffffffffffffffffff16148061289957506128988484611300565b5b806128d757508273ffffffffffffffffffffffffffffffffffffffff166128bf8361170d565b73ffffffffffffffffffffffffffffffffffffffff16145b5b90509392505050565b600080600090507a184f03e93ff9f4daa797ed6e38ed64bf6a1f010000000000000000831061293f577a184f03e93ff9f4daa797ed6e38ed64bf6a1f0100000000000000008381612935576129346138cf565b5b0492506040810190505b6d04ee2d6d415b85acef8100000000831061297c576d04ee2d6d415b85acef81000000008381612972576129716138cf565b5b0492506020810190505b662386f26fc1000083106129ab57662386f26fc1000083816129a1576129a06138cf565b5b0492506010810190505b6305f5e10083106129d4576305f5e10083816129ca576129c96138cf565b5b0492506008810190505b61271083106129f95761271083816129ef576129ee6138cf565b5b0492506004810190505b60648310612a1c5760648381612a1257612a116138cf565b5b0492506002810190505b600a8310612a2b576001810190505b80915050919050565b6000604051905090565b600080fd5b600080fd5b60007fffffffff0000000000000000000000000000000000000000000000000000000082169050919050565b612a7d81612a48565b8114612a8857600080fd5b50565b600081359050612a9a81612a74565b92915050565b600060208284031215612ab657612ab5612a3e565b5b6000612ac484828501612a8b565b91505092915050565b60008115159050919050565b612ae281612acd565b82525050565b6000602082019050612afd6000830184612ad9565b92915050565b600081519050919050565b600082825260208201905092915050565b60005b83811015612b3d578082015181840152602081019050612b22565b60008484015250505050565b6000601f19601f8301169050919050565b6000612b6582612b03565b612b6f8185612b0e565b9350612b7f818560208601612b1f565b612b8881612b49565b840191505092915050565b60006020820190508181036000830152612bad8184612b5a565b905092915050565b600073ffffffffffffffffffffffffffffffffffffffff82169050919050565b6000612be082612bb5565b9050919050565b612bf081612bd5565b82525050565b6000602082019050612c0b6000830184612be7565b92915050565b6000819050919050565b612c2481612c11565b8114612c2f57600080fd5b50565b600081359050612c4181612c1b565b92915050565b600060208284031215612c5d57612c5c612a3e565b5b6000612c6b84828501612c32565b91505092915050565b612c7d81612bd5565b8114612c8857600080fd5b50565b600081359050612c9a81612c74565b92915050565b60008060408385031215612cb757612cb6612a3e565b5b6000612cc585828601612c8b565b9250506020612cd685828601612c32565b9150509250929050565b612ce981612c11565b82525050565b6000602082019050612d046000830184612ce0565b92915050565b600080600060608486031215612d2357612d22612a3e565b5b6000612d3186828701612c8b565b9350506020612d4286828701612c8b565b9250506040612d5386828701612c32565b9150509250925092565b60008060408385031215612d7457612d73612a3e565b5b6000612d8285828601612c32565b9250506020612d9385828601612c32565b9150509250929050565b600060208284031215612db357612db2612a3e565b5b6000612dc184828501612c8b565b91505092915050565b612dd381612acd565b8114612dde57600080fd5b50565b600081359050612df081612dca565b92915050565b60008060408385031215612e0d57612e0c612a3e565b5b6000612e1b85828601612c8b565b9250506020612e2c85828601612de1565b9150509250929050565b600080fd5b600080fd5b7f4e487b7100000000000000000000000000000000000000000000000000000000600052604160045260246000fd5b612e7882612b49565b810181811067ffffffffffffffff82111715612e9757612e96612e40565b5b80604052505050565b6000612eaa612a34565b9050612eb68282612e6f565b919050565b600067ffffffffffffffff821115612ed657612ed5612e40565b5b612edf82612b49565b9050602081019050919050565b82818337600083830152505050565b6000612f0e612f0984612ebb565b612ea0565b905082815260208101848484011115612f2a57612f29612e3b565b5b612f35848285612eec565b509392505050565b600082601f830112612f5257612f51612e36565b5b8135612f62848260208601612efb565b91505092915050565b60008060008060808587031215612f8557612f84612a3e565b5b6000612f9387828801612c8b565b9450506020612fa487828801612c8b565b9350506040612fb587828801612c32565b925050606085013567ffffffffffffffff811115612fd657612fd5612a43565b5b612fe287828801612f3d565b91505092959194509250565b6000819050919050565b61300181612fee565b82525050565b600060208201905061301c6000830184612ff8565b92915050565b6000806040838503121561303957613038612a3e565b5b600061304785828601612c8b565b925050602061305885828601612c8b565b9150509250929050565b600080fd5b600080fd5b60008083601f84011261308257613081612e36565b5b8235905067ffffffffffffffff81111561309f5761309e613062565b5b6020830191508360018202830111156130bb576130ba613067565b5b9250929050565b6130cb81612fee565b81146130d657600080fd5b50565b6000813590506130e8816130c2565b92915050565b600080600080600080600060a0888a03121561310d5761310c612a3e565b5b600061311b8a828b01612c8b565b975050602088013567ffffffffffffffff81111561313c5761313b612a43565b5b6131488a828b0161306c565b9650965050604088013567ffffffffffffffff81111561316b5761316a612a43565b5b6131778a828b0161306c565b9450945050606061318a8a828b01612c32565b925050608061319b8a828b016130d9565b91505092959891949750929550565b7f4e487b7100000000000000000000000000000000000000000000000000000000600052602260045260246000fd5b600060028204905060018216806131f157607f821691505b602082108103613204576132036131aa565b5b50919050565b600060608201905061321f6000830186612be7565b61322c6020830185612ce0565b6132396040830184612be7565b949350505050565b600081905092915050565b50565b600061325c600083613241565b91506132678261324c565b600082019050919050565b600061327d8261324f565b9150819050919050565b7f5472616e73666572206661696c65640000000000000000000000000000000000600082015250565b60006132bd600f83612b0e565b91506132c882613287565b602082019050919050565b600060208201905081810360008301526132ec816132b0565b9050919050565b7f4e487b7100000000000000000000000000000000000000000000000000000000600052601160045260246000fd5b600061332d82612c11565b915061333883612c11565b92508282039050818111156133505761334f6132f3565b5b92915050565b7f526566756e64206661696c656400000000000000000000000000000000000000600082015250565b600061338c600d83612b0e565b915061339782613356565b602082019050919050565b600060208201905081810360008301526133bb8161337f565b9050919050565b60006133cd82612c11565b91507fffffffffffffffffffffffffffffffffffffffffffffffffffffffffffffffff82036133ff576133fe6132f3565b5b600182019050919050565b600082905092915050565b60008190508160005260206000209050919050565b60006020601f8301049050919050565b600082821b905092915050565b6000600883026134777fffffffffffffffffffffffffffffffffffffffffffffffffffffffffffffffff8261343a565b613481868361343a565b95508019841693508086168417925050509392505050565b6000819050919050565b60006134be6134b96134b484612c11565b613499565b612c11565b9050919050565b6000819050919050565b6134d8836134a3565b6134ec6134e4826134c5565b848454613447565b825550505050565b600090565b6135016134f4565b61350c8184846134cf565b505050565b5b81811015613530576135256000826134f9565b600181019050613512565b5050565b601f8211156135755761354681613415565b61354f8461342a565b8101602085101561355e578190505b61357261356a8561342a565b830182613511565b50505b505050565b600082821c905092915050565b60006135986000198460080261357a565b1980831691505092915050565b60006135b18383613587565b9150826002028217905092915050565b6135cb838361340a565b67ffffffffffffffff8111156135e4576135e3612e40565b5b6135ee82546131d9565b6135f9828285613534565b6000601f8311600181146136285760008415613616578287013590505b61362085826135a5565b865550613688565b601f19841661363686613415565b60005b8281101561365e57848901358255600182019150602085019450602081019050613639565b8683101561367b5784890135613677601f891682613587565b8355505b6001600288020188555050505b50505050505050565b600081519050919050565b600082825260208201905092915050565b60006136b882613691565b6136c2818561369c565b93506136d2818560208601612b1f565b6136db81612b49565b840191505092915050565b60006080820190506136fb6000830187612be7565b6137086020830186612be7565b6137156040830185612ce0565b818103606083015261372781846136ad565b905095945050505050565b60008151905061374181612a74565b92915050565b60006020828403121561375d5761375c612a3e565b5b600061376b84828501613732565b91505092915050565b600081905092915050565b600061378a82612b03565b6137948185613774565b93506137a4818560208601612b1f565b80840191505092915050565b60006137bc828561377f565b91506137c8828461377f565b91508190509392505050565b6137dd82612b03565b67ffffffffffffffff8111156137f6576137f5612e40565b5b61380082546131d9565b61380b828285613534565b600060209050601f83116001811461383e576000841561382c578287015190505b61383685826135a5565b86555061389e565b601f19841661384c86613415565b60005b828110156138745784890151825560018201915060208501945060208101905061384f565b86831015613891578489015161388d601f891682613587565b8355505b6001600288020188555050505b505050505050565b60006040820190506138bb6000830185612be7565b6138c86020830184612ce0565b9392505050565b7f4e487b7100000000000000000000000000000000000000000000000000000000600052601260045260246000fdfea2646970667358221220ce85ee65f3da1444ed910df30d7dc9c6038424c8c0629ffbd62032774e53d6ea64736f6c634300081c0033",
  "linkReferences": {},
  "deployedLinkReferences": {}
}